:040000000128F42FB0
:100E760078302100990008001630210097000800FC
:100E86002400940120309500920108007C273B271E
:100E96003F2743275D270800FE0012001E00FE0BB9
:100EA600502F0034F0002000111E562F700823002A
:100EB6009A000800083023009F0090309D002430DF
:100EC6009E00CF309B009C010800543445345334B7
:100ED60054345934003400340034003400340034BF
:100EE600003400340034003400340034003400345C
:100EF600003422008C018D018E0121008C01C73047
:100F06008D0097308E0023008E013F308D002F30EC
:100F16008C00083024009000FF308D0021009513CE
:100F260022009D010800F200F301F4017408803AE2
:100F3600F10080307102031DA22F143073020318D2
:100F4600BB2F73087207F10071088600870101083C
:100F560055270130F3070030F43D7408803AF1005C
:100F660080307102031DB92F14307302031CA42FA5
:100F76000D3055270A3055270800492722008D11C4
:100F86008D161530F7004B30F600D130F500F50B15
:100F9600CA2FF60BCA2FF70BCA2F000022008D129C
:100FA6000D161530F7004B30F600D130F500F50B75
:100FB600DA2FF60BDA2FF70BDA2F000022000D12CC
:100FC6008D151530F7004B30F600D130F500F50BD6
:100FD600EA2FF60BEA2FF70BEA2F000020309627B0
:100FE600C12F6830840087308500203086000030AD
:0A0FF600870014304F272000C02FA1
:020000040001F9
:04000E00E4FFFFFF0D
:00000001FF
