:100000000128EE2F9B2DA52DAF2DB92DC32DCD2D64
:06001000D72DE12DEB2DC0
:10092800783021009900080016302100970008004F
:10093800240094012130950092010800F5249424A4
:1009480098249C24C5240800640080010131890B87
:10095800A92C0034FE0012001E00FE0BAF2C003440
:10096800F0002000111EB52C700823009A00080022
:10097800F0002400951370089100141CC12C110874
:100988000800083023009F0090309D0024309E000E
:10099800CF309B009C010800013400340A34003435
:1009A80064340034E83403341034273454342034A5
:1009B8003D342034253464340034543445345334BD
:1009C80054345934003400340034003400340034D2
:1009D800003400340034003400340034003400346F
:1009E8000034FF3022008C008D018E0121008C0123
:1009F800C7308D0097308E0023008E013F308D0068
:100A08002F308C00083024009000FF308D0021002A
:100A1800951322009D010800F200F301F401740807
:100A2800803AF10080307102031D1C2D14307302CE
:100A38000318352D73087207F100710886008701C5
:100A48000108B4240130F3070030F43D7408803AFB
:100A5800F10080307102031D332D14307302031C22
:100A68001E2D0D30B4240A30B42408007808790407
:100A78000319612DFD01FD0AF91B4C2D0130F835D4
:100A8800F90D890B432D0130FC007C08FD07402D32
:100A980079087B02031D522D78087A02031C582D11
:100AA8007808FA027908FB3B0130F936F80C890B13
:100AB800592D0130FD02031D4C2D7B08F9007A08E1
:100AC800F8000800F501F601700871040319952D66
:100AD800F701F70AF11B7A2D0130F035F10D890B7A
:100AE800712D0130F4007408F7076E2D0130F535CB
:100AF800F60D890B7B2D71087302031D852D700877
:100B08007202031C8C2D7008F2027108F33B7514F5
:100B18000130F136F00C890B8D2D0130F702031DE1
:100B28007A2D7608F1007508F0000800FF2D2200E4
:100B38000C148C140C158C150C168C168C170C17A1
:100B4800080022000C108C140C158C150C168C1631
:100B58008C170C17080022000C148C100C158C151F
:100B68000C168C168C170C17080022000C148C1409
:100B78000C118C150C168C168C170C1708002200FB
:100B88000C148C140C158C110C168C168C170C1755
:100B9800080022000C148C140C158C150C128C16E1
:100BA8008C170C17080022000C148C140C158C15CB
:100BB8000C168C128C170C17080022000C148C14BD
:100BC8000C158C150C168C168C130C1708002200AB
:100BD8000C148C140C158C150C168C168C170C1305
:100BE800080022000C148C140C158C150C168C168D
:100BF8008C170C1708007108003A0319042EF52DFC
:100C080070088400093004020318F52D8031023081
:100C18000407820008002000D3000030D70000300D
:100C2800D6000030D5000030D4005308C000C10100
:100C38004008F0004108F1009A250030BC2420004B
:100C4800C0004008D8000030BC242000C000400884
:100C5800D9000030BC242000C0004008DA00003071
:100C6800BC242000C0004008DB000030F000F10088
:100C78009A2520005B08C000C101C201C3015A08BF
:100C8800C400C5014408C500C4014408C70045089C
:100C9800C8000030C81BFF30C900CA005908CB0083
:100CA800CC01CD01CE011030CB35CC0DCD0DCE0D04
:100CB800890B582E5808CF00D001D101D201183025
:100CC800CF35D00DD10DD20D890B642E4F08CB072F
:100CD8005008CC3D5108CD3D5208CE3D4B08C707C2
:100CE8004C08C83D4D08C93D4E08CA3D4708C007D5
:100CF8004808C13D4908C23D4A08C33D4308D700DA
:100D08004208D6004108D5004008D4005708F5002D
:100D18005608F4005508F3005408F2000800A2240D
:100D28000030F000F1009A2515302000DE004B302D
:100D3800DD00D130DC00DC0B9F2EDD0B9F2EDE0B9F
:100D48009F2E000022008D1615302000DE004B304B
:100D5800DD00D130DC00DC0BAF2EDD0BAF2EDE0B5F
:100D6800AF2E000022008D120D1601300F267508D7
:100D78002000A3007408A2007308A1007208A00054
:100D880002300F2675082000A7007408A600730813
:100D9800A5007208A40003300F2675082000AB00D8
:100DA8007408AA007308A9007208A80004300F2666
:100DB80075082000AF007408AE007308AD00720813
:100DC800AC0005300F2675082000B3007408B20087
:100DD8007308B1007208B00006300F2675082000AD
:100DE800B7007408B6007308B5007208B40007307D
:100DF8000F2675082000BB007408BA007308B900F4
:100E08007208B80008300F2675082000BF00740863
:100E1800BE007308BD007208BC0022000D12DA3053
:100E28002000C0008430C1002308C5002208C40087
:100E38002108C3002008C200A0302527A0301025B3
:100E4800982E2000CF004230C6004608CA0041084C
:100E5800C7004008C600C00A0319C10A4608840032
:100E6800470885000008C8004808D0005008031942
:100E7800E92F2530500603194D2F5008C6004F089A
:100E880086008701460881000130C6004608CF0762
:100E98002B2FCB014108C7004008C600C00A031920
:100EA800C10A46088400470885000008D000003AB7
:100EB8000319E92F643A0319652F0D3A0319652FB1
:100EC8002B2F4A0886008701403FCD00413FCE00C6
:100ED8000230C6004608CA07CE1F7B2F0330C60063
:100EE8004608CB04CD09CE09CD0A0319CE0AD00194
:100EF800D00A053050060319A02F5008C600C701B4
:100F0800C635C70DD030460784008430473D85007C
:100F1800003FC800013FC90049084E02031D962F33
:100F280048084D02031CA02F0130C6004608D00710
:100F380005305006031D812F4B0803390319AF2FC5
:100F48002D30C6004F088600870146088100013011
:100F5800C6004608CF075008C6004608CC00FF3038
:100F6800C6004608CC074C0A03192B2F0A30F80094
:100F78000030F9004C08C600C701C635C70DD0308F
:100F8800460784008430473D8500003FF000013F5C
:100F9800F1004E08F3004D08F20066257108FB00C9
:100FA8007008FA003A257808303E2000C800480842
:100FB800D0005008C6004F08860087014608810007
:100FC8000130C6004608CF07B32F4F0886008701B7
:100FD80081010800E130840084308500A03086005B
:100FE800003087001430AE242030840000308500A3
:080FF8002030A8242000932EF4
:020000040001F9
:04000E00E4FFFFFF0D
:00000001FF
