:100000000128F22F912D9B2DA52DAF2DB92DC32D9C
:06001000CD2DD72DE12DDE
:10080E00783021009900080016302100970008006A
:10081E0024009401213095009201080047240724FA
:10082E000B240F243C240800FE0012001E00FE0BB9
:10083E001C2C0034F0002000111E222C7008230006
:10084E009A000800F0002400951370089100141C03
:10085E002E2C110808002000911E322C23009D1C06
:10086E003A2C1D121D1619080800083023009F008F
:10087E0090309D0024309E0022309B009C01080089
:10088E00FF3022008C008D018E0121008C01C730BB
:10089E008D0097308E0023008E013F308D002F305B
:1008AE008C00083024009000FF308D00210095133D
:1008BE0022009D0108004E344F344E3445344E34E0
:1008CE004F344E3445344E344F344E3445344E341A
:1008DE004F344E3445344E344F344E3445344E340A
:1008EE004F344E3445344E344F344E3445344E34FA
:1008FE004F344E344534700871040319A92CF50198
:10090E00F50AF11B942C0130F035F10D890B8B2C6F
:10091E000130F4007408F507882C71087302031D6A
:10092E009A2C70087202031CA02C7008F202710837
:10093E00F33B0130F136F00C890BA12C0130F5029E
:10094E00031D942C7308F1007208F0000800F500E6
:10095E007503031DB62C2030F2007208F40002302D
:10096E007506031DBE2C2430F2007208F40003300D
:10097E007506031DC62C2830F2007208F4000430F0
:10098E007506031DCE2C2C30F2007208F4000530D3
:10099E007506031DD62C3030F2007208F4000630B6
:1009AE007506031DDE2C3430F2007208F400073099
:1009BE007506031DE62C3830F2007208F40008307C
:1009CE007506031DEE2C3C30F2007208F40075081B
:1009DE00F200F3017208F0007308F1009025003068
:1009EE002924F20074088600870172088100003005
:1009FE002924F200740A86008701720881000030F3
:100A0E002924F2007408023E8600870172088100D4
:100A1E0000302924F2007408033E86008701720814
:100A2E0081000030F000F100902508001524003000
:100A3E00F000F100902522000D162000911E242DAD
:100A4E003224F7007708FA0023307A060319790862
:100A5E0003196F2D67307A060319790303196F2D69
:100A6E0065307A06031D3F2D0230790603196F2D6E
:100A7E0074307A06031D472D0330790603196F2D46
:100A8E005F307A06031D4F2D0430790603196F2D42
:100A9E0064307A06031D572D0530790603196F2D24
:100AAE0061307A06031D5F2D0630790603196F2D0E
:100ABE0074307A06031D672D0730790603196F2DE2
:100ACE0061307A06031D742D08307906031D742DCE
:100ADE000130F7007708F907752DF9010930790211
:100AEE00031C242D22008D15F801F80A0930780216
:100AFE0003188B2D7808AE240130F7007708F8071D
:100B0E0009307802031C812D0526F90122008D1172
:100B1E00242DF52D22000C148C140C158C150C168E
:100B2E008C168C170C17080022000C108C140C1548
:100B3E008C150C168C168C170C17080022000C1432
:100B4E008C100C158C150C168C168C170C170800A7
:100B5E0022000C148C140C118C150C168C168C1780
:100B6E000C17080022000C148C140C158C110C168A
:100B7E008C168C170C17080022000C148C140C15F4
:100B8E008C150C128C168C170C17080022000C14E6
:100B9E008C140C158C150C168C128C170C17080057
:100BAE0022000C148C140C158C150C168C168C1330
:100BBE000C17080022000C148C140C158C150C1636
:100BCE008C168C170C13080022000C148C140C15A8
:100BDE008C150C168C168C170C1708007108003A21
:100BEE000319FA2DEB2D7008840009300402031846
:100BFE00EB2D803102300407820008002000D10165
:100C0E00D201C0012330212420005108233ED100FF
:100C1E000030523DD2007C302124200051087C3E11
:100C2E00D1000030523DD200C101C2014208803ACB
:100C3E00F60080307602031D262E04304102031882
:100C4E004A2E20004108203E8600870101082124FB
:100C5E0020004108203E8600870101085107D1007F
:100C6E0052080318520AD2000130C1070030C23DAB
:100C7E004208803AF60080307602031D482E04307A
:100C8E004102031C282E7C302124200051087C3E7A
:100C9E00D1000030523DD200C301C4014408803A55
:100CAE00F60080307602031D5E2E043043020318D8
:100CBE00822E20004308243E86008701010821244D
:100CCE0020004308243E8600870101085107D10009
:100CDE0052080318520AD2000130C3070030C43D37
:100CEE004408803AF60080307602031D802E0430D0
:100CFE004302031C602E7C302124200051087C3ED0
:100D0E00D1000030523DD200C501C6014608803ADE
:100D1E00F60080307602031D962E0430450203182D
:100D2E00BA2E20004508283E86008701010821249E
:100D3E0020004508283E8600870101085107D10092
:100D4E0052080318520AD2000130C5070030C63DC2
:100D5E004608803AF60080307602031DB82E043025
:100D6E004502031C982E7C302124200051087C3E25
:100D7E00D1000030523DD200C701C8014808803A68
:100D8E00F60080307602031DCE2E04304702031883
:100D9E00F22E200047082C3E8600870101082124F0
:100DAE00200047082C3E8600870101085107D1001C
:100DBE0052080318520AD2000130C7070030C83D4E
:100DCE004808803AF60080307602031DF02E04307B
:100DDE004702031CD02E7C302124200051087C3E7B
:100DEE00D1000030523DD200C901CA014A08803AF2
:100DFE00F60080307602031D062F043049020318D8
:100E0E002A2F20004908303E860087010108212440
:100E1E0020004908303E8600870101085107D100A5
:100E2E0052080318520AD2000130C9070030CA3DD9
:100E3E004A08803AF60080307602031D282F0430CF
:100E4E004902031C082F7C302124200051087C3ECF
:100E5E00D1000030523DD200CB01CC014C08803A7B
:100E6E00F60080307602031D3E2F04304B0203182D
:100E7E00622F20004B08343E860087010108212492
:100E8E0020004B08343E8600870101085107D1002F
:100E9E0052080318520AD2000130CB070030CC3D65
:100EAE004C08803AF60080307602031D602F043025
:100EBE004B02031C402F7C302124200051087C3E25
:100ECE00D1000030523DD200CD01CE014E08803A05
:100EDE00F60080307602031D762F04304D02031883
:100EEE009A2F20004D08383E8600870101082124E4
:100EFE0020004D08383E8600870101085107D100B9
:100F0E0052080318520AD2000130CD070030CE3DF0
:100F1E004E08803AF60080307602031D982F04307A
:100F2E004D02031C782F7C302124200051087C3E7A
:100F3E00D1000030523DD200CF01D0015008803A8E
:100F4E00F60080307602031DAE2F04304F020318D8
:100F5E00D22F20004F083C3E860087010108212435
:100F6E0020004F083C3E8600870101085107D10042
:100F7E0052080318520AD2000130CF070030D03D7C
:100F8E005008803AF60080307602031DD02F0430D0
:100F9E004F02031CB02F7C302124200051087C3ED0
:100FAE00D1000030523DD200FF30F0000030F10091
:100FBE005208F3005108F20082247008F6007608F9
:100FCE002000C000400821247C3021240D30212433
:100FDE000A302124080062308400843085002030DD
:100FEE0086000030870020301B24F901FA01200012
:020FFE001D2DA7
:020000040001F9
:04000E00E4FFFFFF0D
:00000001FF
