:100000000128F22FDC2DE62DF02DFA2D042E0E2ED8
:06001000182E222E2C2EFA
:1008A40078302100990008001630210097000800D4
:1008B40024009401213095009201080092245224CE
:1008C40056245A2487240800FE0012001E00FE0B42
:1008D400672C0034F0002000111E6D2C70082300DA
:1008E4009A000800F0002400951370089100141C6D
:1008F400792C110808002000911E7D2C23009D1CDA
:10090400852C1D121D1619080800083023009F00AD
:1009140090309D0024309E0022309B009C010800F2
:10092400FF3022008C008D018E0121008C01C73024
:100934008D0097308E0023008E013F308D002F30C4
:100944008C00083024009000FF308D0021009513A6
:1009540022009D0108004E344F344E3445344E3449
:100964004F344E3445344E344F344E3445344E3483
:100974004F344E3445344E344F344E3445344E3473
:100984004F344E3445344E344F344E3445344E3463
:100994004F344E344534700871040319F42CF501B6
:1009A400F50AF11BDF2C0130F035F10D890BD62C43
:1009B4000130F4007408F507D32C71087302031D89
:1009C400E52C70087202031CEB2C7008F20271080B
:1009D400F33B0130F136F00C890BEC2C0130F502BD
:1009E400031DDF2C7308F1007208F0000800F50005
:1009F4007503031D012D2030F2007208F40002304B
:100A04007506031D092D2430F2007208F40003302A
:100A14007506031D112D2830F2007208F40004300D
:100A24007506031D192D2C30F2007208F4000530F0
:100A34007506031D212D3030F2007208F4000630D3
:100A44007506031D292D3430F2007208F4000730B6
:100A54007506031D312D3830F2007208F400083099
:100A64007506031D392D3C30F2007208F400750838
:100A7400F200F3017208F0007308F100DB25003086
:100A84007424F20074088600870172088100003023
:100A94007424F200740A8600870172088100003011
:100AA4007424F2007408023E8600870172088100F3
:100AB40000307424F2007408033E86008701720833
:100AC40081000030F000F100DB25080060240030D4
:100AD400F000F100DB2522000D162000911E6F2D81
:100AE4007D24F7007708FA0023307A060319790881
:100AF4000319BA2D67307A06031979030319BA2D3D
:100B040065307A06031D8A2D023079060319BA2D41
:100B140074307A06031D922D033079060319BA2D19
:100B24005F307A06031D9A2D043079060319BA2D15
:100B340064307A06031DA22D053079060319BA2DF7
:100B440061307A06031DAA2D063079060319BA2DE1
:100B540074307A06031DB22D073079060319BA2DB5
:100B640061307A06031DBF2D08307906031DBF2DA1
:100B74000130F7007708F907C02DF901093079022F
:100B8400031C6F2D22008D15F801F80A0930780234
:100B94000318D62D7808F9240130F7007708F807F0
:100BA40009307802031CCC2D5026F90122008D1146
:100BB4006F2D402E22000C148C140C158C150C1661
:100BC4008C168C170C17080022000C108C140C15B2
:100BD4008C150C168C168C170C17080022000C149C
:100BE4008C100C158C150C168C168C170C17080011
:100BF40022000C148C140C118C150C168C168C17EA
:100C04000C17080022000C148C140C158C110C16F3
:100C14008C168C170C17080022000C148C140C155D
:100C24008C150C128C168C170C17080022000C144F
:100C34008C140C158C150C168C128C170C170800C0
:100C440022000C148C140C158C150C168C168C1399
:100C54000C17080022000C148C140C158C150C169F
:100C64008C168C170C13080022000C148C140C1511
:100C74008C150C168C168C170C1708007108003A8A
:100C84000319452E362E7008840009300402031817
:100C9400362E803102300407820008002000D10182
:100CA400D201C00123306C2420005108233ED1001E
:100CB4000030523DD200C101C2014208803AF60020
:100CC40080307602031D682E0430410203188C2EF6
:100CD40020004108203E8600870101086C24200082
:100CE4004108203E8600870101085107D1005208BF
:100CF4000318520AD2000130C1070030C23D420835
:100D0400803AF60080307602031D8A2E04304102B8
:100D1400031C6A2E2000C301C4014408803AF60073
:100D240080307602031D982E043043020318BC2E33
:100D340020004308243E8600870101086C2420001B
:100D44004308243E8600870101085107D100520858
:100D54000318520AD2000130C3070030C43D4408CE
:100D6400803AF60080307602031DBA2E0430430226
:100D7400031C9A2E2000C501C6014608803AF600DD
:100D840080307602031DC82E043045020318EC2E71
:100D940020004508283E8600870101086C242000B5
:100DA4004508283E8600870101085107D1005208F2
:100DB4000318520AD2000130C5070030C63D460868
:100DC400803AF60080307602031DEA2E0430450294
:100DD400031CCA2E2000C701C8014808803AF60047
:100DE40080307602031DF82E0430470203181C2FAE
:100DF400200047082C3E8600870101086C2420004F
:100E040047082C3E8600870101085107D10052088B
:100E14000318520AD2000130C7070030C83D480801
:100E2400803AF60080307602031D1A2F0430470200
:100E3400031CFA2E2000C901CA014A08803AF600B0
:100E440080307602031D282F0430490203184C2FEA
:100E540020004908303E8600870101086C242000E8
:100E64004908303E8600870101085107D100520825
:100E74000318520AD2000130C9070030CA3D4A089B
:100E8400803AF60080307602031D4A2F043049026E
:100E9400031C2A2F2000CB01CC014C08803AF60019
:100EA40080307602031D582F04304B0203187C2F28
:100EB40020004B08343E8600870101086C24200082
:100EC4004B08343E8600870101085107D1005208BF
:100ED4000318520AD2000130CB070030CC3D4C0835
:100EE400803AF60080307602031D7A2F04304B02DC
:100EF400031C5A2F2000CD01CE014E08803AF60083
:100F040080307602031D882F04304D020318AC2F65
:100F140020004D08383E8600870101086C2420001B
:100F24004D08383E8600870101085107D100520858
:100F34000318520AD2000130CD070030CE3D4E08CE
:100F4400803AF60080307602031DAA2F04304D0249
:100F5400031C8A2F2000CF01D0015008803AF600EC
:100F640080307602031DB82F04304F020318DC2FA3
:100F740020004F083C3E8600870101086C242000B5
:100F84004F083C3E8600870101085107D1005208F2
:100F94000318520AD2000130CF070030D03D500868
:100FA400803AF60080307602031DDA2F04304F02B7
:100FB400031CBA2FFF30F0000030F100200052086B
:100FC400F3005108F200CD247008F60076082000E2
:100FD400C00040086C240D306C240A306C240800D6
:100FE400AD308400843085002030860000308700D6
:0C0FF40020306624F901FA012000682D6D
:020000040001F9
:04000E00E4FFFFFF0D
:00000001FF
