:040000000128F42FB0
:100E0400783021009900080016302100970008006E
:100E14002400940120309500920108004E270227F7
:100E240006270A2724270800FE0012001E00FE0BD6
:100E3400172F0034F0002000111E1D2F700823000E
:100E44009A000800083023009F0090309D00243051
:100E54009E00CF309B009C01080043346F347334F0
:100E64004E3461347034693473347A346534003404
:100E74005434453453345434593400340034003435
:100E840000340034003400340034003400340034BE
:100E9400003400340034003422008C018D018E01B2
:100EA40021008C01C7308D0097308E0023008E0105
:100EB4003F308D002F308C00083024009000FF302C
:100EC4008D002100951322009D010800F700723067
:100ED400F2007208F5007108F3007008F200F00ADD
:100EE4000319F10A72088400730885000008F400ED
:100EF4007408F600760803198B2F7608F200770839
:100F040086008701720881000130F2007208F70739
:100F14006D2F77088600870181010800F200F30134
:100F2400F4017408803AF10080307102031D9C2F93
:100F3400143073020318B52F73087207F100710897
:100F44008600870101081C270130F3070030F43DB7
:100F54007408803AF10080307102031DB32F1430FD
:100F64007302031C9E2F0D301C270A301C27080017
:100F7400102722008D118D161530FA004B30F90020
:100F8400D130F800F80BC42FF90BC42FFA0BC42F7F
:100F9400000022008D120D161530FA004B30F900B6
:100FA400D130F800F80BD42FF90BD42FFA0BD42F2F
:100FB400000022000D128D151530FA004B30F90097
:100FC400D130F800F80BE42FF90BE42FFA0BE42FDF
:100FD40000002F30F0008730F100203068272030E7
:100FE4009027BB2F3A30840087308500203086005C
:0C0FF40000308700143016272000BA2FB0
:020000040001F9
:04000E00E4FFFFFF0D
:00000001FF
